:020000040800F2
:1000000000000220F10A0508A10B0508D50002082E
:10001000A10B0508A10B0508A10B050800000000B5
:10002000000000000000000000000000A10B050817
:10003000A10B050800000000A10B0508E5C200089F
:10004000A10B0508A10B0508A10B0508A10B0508CC
:10005000A10B0508A10B0508E7A70008EBA70008FE
:10006000A10B0508EFA70008F3A70008518A0008B4
:10007000658A0008798A00088D8A0008A18A00082C
:10008000B58A0008C98A0008A10B05080000000015
:10009000000000000000000000000000F7A70008BA
:1000A0008D890008B5890008DD8900087989000874
:1000B000058A0008158A0008298A0008A10B05088E
:1000C000A10B0508A10B0508A10B0508A10B05084C
:1000D000A10B0508538900085D8900080000000095
:1000E000FBA70008A10B0508A10B050800000000F4
:1000F000000000000000000000000000DD8A000891
:1001000000000000A10B05083D8A0008A10B0508AE
:1001100000000000000000000000000000000000DF
:10012000F18A0008058B0008198B00082D8B000848
:10013000418B0008000000000000000000000000EB
:10014000000000000000000000000000A10B0508F6
:10015000558B0008698B00087D8B000869890008B1
:10016000A10B0508A10B050800000000000000001D
:10017000000000000000000000000000000000007F
:1001800000000000A10B05080000000000000000B6
:08019000A10B0508A10B0508F5
:080198008406050001000000CF
:1001A0001CD2002002020000010014003CD20020FA
:1001B00001100000000076005CD200200114000055
:1001C00000001E007CD20020011A000000000D007B
:1001D0009CD200200115000000000C00BCD20020C1
:1001E0000116000000000C00DCD20020011B000002
:1001F00000000E00FCD20020011C000000001E00C8
:100200001CD300200117000000000C003CD300208C
:100210000118000000000E005CD30020011900004E
:1002200000000C007CD30020011E000000000C0028
:100230009CD30020011F000000000C00BCD3002054
:100240000128010000001800DCD30020012000007C
:1002500000004800FCD300200121000000004900FC
:100260001CD400200122000000004A003CD40020E1
:100270000123000000004B005CD40020012400009A
:1002800000004C007CD400200125000000004D003F
:100290009CD400200126000000004E00BCD40020A9
:1002A0000127000000004F00DCD4002001330000D3
:1002B00000003C00FCD400200136000000002000BB
:10800000D0E907239A422FBFD01AC0688018C01A3F
:108010007047D0E9092300699A4238BF1218D31A71
:108020000138C01A7047D0E90902131A5842584162
:108030007047036A41690246C85CD16801338B42CC
:1080400028BF002313627047436A8269D154436A90
:1080500002690133934228BF0023426B4362D36815
:1080600043F08003D3607047436B188810F0100012
:108070001EBF1A889B8801207047436B99891A8814
:10808000890610B592B2044607D5900605D5E26A76
:1080900022B39888216B80B29047636B99891A88C4
:1080A000090692B20FD510060DD5D4E909128A42FD
:1080B00022D0A169895C998021690132B2FBF1F07B
:1080C00001FB1022A262998A1A88C90592B204D5CE
:1080D000D20744BF4FF6F7721A8010BD9B88E26941
:1080E0006169DBB28B54E369E2680133B3FBF2F1FF
:1080F00002FB1133E361D0E7DA6822F08002DA6034
:10810000E1E70E4BDA68D20310D4DA68D1060FD457
:10811000DA68D2050ED4DA6812F0E00F0CD1DB6811
:1081200013F0020F14BF0820092070470120704788
:10813000062070470220704707207047003C02402D
:1081400007B509238DF80730FFF7DBFF8DF807002F
:108150009DF80730012BF7D09DF8070003B05DF8BC
:1081600004FB2DE9F0410022012603250B6806FAE5
:1081700002FC3CEA030331D10368540005FA04FE13
:1081800023EA0E0303600B79D0F800806FEA0E0734
:1081900003FA04FE013B4EEA080E012BC0F800E092
:1081A00011D883681F4087604B798768A3403B43A1
:1081B0008360436823EA0C0343608B7947689340EC
:1081C0009BB23B434360C36805FA04F723EA070305
:1081D000C360CB79C768A3403B43C3600132102A18
:1081E000C4D1BDE8F081838A028B9BB243EA02438B
:1081F00031EA03030CBF01200020704782B0002346
:1082000001930093012300900193019B63B1009AB5
:1082100021F07F4314320092009A12681A4214BF70
:108220000120002002B07047009A1832F3E770472F
:108230007047D0ED007AD0ED036A30EE677AE6EE53
:10824000877AB0EE670AC0ED007A7047D0ED017A08
:10825000F5EE407AF1EE10FA09D1DFED0F7A60EE1B
:10826000A70AB7EE007AC7EE207AC0ED017AD0ED0A
:10827000017A80ED021A71EE277AC1EE276AD0EDFD
:10828000007AC0ED036A30EE677AE6EE877AB0EEE8
:10829000670AC0ED007A7047DB0FC940D0ED017A64
:1082A000D0ED036A30EE670AE6EE807A90ED000AC0
:1082B000C0ED017AB0EE677AD0ED027A37EE677AD8
:1082C000E6EE877AC0ED027A77EEC07AA6EEA70ACC
:1082D00080ED000A704790ED056AD0ED017AD0ED8F
:1082E000006AD0ED025A90ED045A66EE277AB0EE9D
:1082F000407AE6EE807AD0ED066A80ED057AE5EE0A
:10830000A67AD0ED076AD0ED035A80ED066AE5EE55
:10831000E67AD0ED085AC0ED086AE5EE657AB0EE6F
:10832000670AC0ED077A7047D0ED006AD0ED057A94
:10833000E6EE807AB0EE407AB0EE670AD0ED037ACE
:10834000D0ED016A67EEC07AE6EE877AD0ED066A74
:1083500076EEA77AD0ED026AC0ED057AD0ED047A08
:1083600067EEC07AE6EE877AC0ED067A704703685A
:108370005A1C02601970704703690133012B0361B5
:1083800006D1002380ED010A80ED000A836070476A
:1083900090ED006A07EE903A70EE466AF8EEE77AE2
:1083A00086EEA77A77EE067A90ED027AC0ED017A32
:1083B00030EE670AC0ED007AA6EE807A80ED037A8F
:1083C00080ED027A704703685A1C0260197070478A
:1083D000007970470079C0F3401070470079400978
:1083E000704790F83C20034602F0FF0012B10022D3
:1083F00083F83C2070474FF400638381704710B5C9
:10840000054A0423002152F8044B844208BF42F875
:10841000041C013BF7D110BD6817002001207047F4
:10842000B0F90000084B4143994208DBB1F5000F59
:1084300007DA0029B8BFFF31081200B270470348BD
:10844000FBE747F6FF70F8E701FF7FFF0080FFFFC3
:1084500001207047044B00221A615A619A61002280
:10846000DA610120704700BF681700200F4B1A6ABD
:10847000D969521AFA2A16D8D3ED047AFDEEE77AB2
:1084800017EE902AD3ED057AC286FDEEE77A17EE55
:10849000902AD3ED067A0287FDEEE77A17EE903A3E
:1084A0004387012070470020704700BF68170020F5
:1084B00010B1036882881A837047024B5B6A5B685D
:1084C000184700BF68170020024B5B6A08309B68A2
:1084D000184700BF6817002001207047012070472F
:1084E00001207047012070470120704731B10C4BCB
:1084F000D3ED0A7AF8EEE77AC1ED007A72B1084B53
:10850000DFED086ADB6AA3F5D543333B07EE903A0B
:10851000F8EEE77A87EEA67A82ED007A704700BF20
:10852000681700200000C8420120704701207047F2
:108530007047044B03EB8000036B0BB19B68196021
:10854000704700BF6817002008B50246FFF7F1FF2B
:10855000BDE80840104620F02FBE0C4A13787BB1CE
:108560000B4B93F8701059B193F8711059B15068D2
:108570000021FA2883F87110A8BF4FF0FF30704730
:108580006FF0010070476FF002007047000000209C
:10859000681700200B4B93F872206AB193F8732090
:1085A0006AB1002283F87320074B9868B0F5967F74
:1085B000A8BF4FF0FF3070476FF0010070476FF0B9
:1085C000020070476817002000000020014B5B6F1D
:1085D0005B68184768170020014B5B6F9B68184762
:1085E00068170020014B5B6FDB6818476817002095
:1085F000014BD868704700BF00000020044B93F87F
:10860000783013B1034B186970476FF00100704761
:1086100068170020000000202DE9F347038A8689AF
:10862000B6B205460C461E404FF0004901F14C071A
:1086300001F1340816B902B0BDE8F087B6FA86F346
:1086400029FA03F2D24391B2298216401B3B002C37
:1086500040D0042BEED8DFE803F039342E28030095
:10866000E368D5F82CA02BB19B681BB11FFA8AF1E7
:10867000201D9847636A33B19B6823B11FFA8AF1C2
:1086800004F11C009847E36B2BB19B681BB11FFAE8
:108690008AF140469847636D002BCBD09B68002B36
:1086A000C8D01FFA8AF1384603E0E368696B5B685B
:1086B000201D9847BEE7636AA96B5B6804F11C0044
:1086C000F7E7E36BE96B5B684046F2E7636D296CA3
:1086D0005B68E8E7042B06D8DFE803F00D0B090719
:1086E0000300EB6A0193019BA4E76B6BFAE7AB6BAA
:1086F000F8E7EB6BF6E72B6CF4E72DE9F0410C4D56
:10870000DFF830802C686B6901271C400CB9BDE88C
:10871000F081B4FA84F3C3F11F0307FA03F608EB00
:10872000830324EA0604D86F036898476E61EDE777
:10873000003C014068170020F7B50C461546064678
:1087400098B303681A4A03F13F4303F57E039B0A7B
:108750000F27D05C45F0B4F83068B6880096B6FABA
:1087600086F3C3F11F0303F00702C3F3CC0300EB4E
:1087700083039200196A974021EA07011962196A76
:1087800095400D431D6204F003038DF80430C4F3DB
:1087900081038DF805306946C4F3001364098DF830
:1087A00006308DF80740FFF7DCFC03B0F0BD00BFDA
:1087B000446E050838B514460D46002943D0344BA5
:1087C0009FED346AD3ED2F7AB3F9D420F8EEE77A2F
:1087D000C7EE866A07EE902AB3F9D02007EE102A7A
:1087E000F8EEE77AB8EEC77AB3F9D220A6EEA77A08
:1087F000D3ED327AF8EEE77AE6EE877A93ED317AC6
:10880000B8EEC70AA6EEA70A07EE902AB3F9CE2063
:1088100007EE102AF8EEE77AB3F9CC20B8EEC77A63
:10882000A6EEA77A07EE902AF8EEE77AE6EE877AC8
:1088300093ED367AB8EEC77AC7EE066AA6EEA70AB7
:1088400048F02CFB28600CB3114BDFED126AD3ED1E
:10885000367AB3F9C020B3F9C230F8EEE77A07EE02
:10886000102A87EEA60A07EE903AF8EEE77AB8EEFD
:10887000C77A60EE277AF6EE006AE7EE267A9FED79
:10888000060A27EE800A48F009FB2060012038BD67
:10889000681700200000F04A0000C8420A4B03EBB2
:1088A000C00010B5D0F8DC4007EE901A5CB1F8EECD
:1088B000E77A94ED047A94ED030AA7EE870A48F06C
:1088C000EDFAA368186010BD6817002010B50C4CB5
:1088D000236AD4F83C011B1AFA2B06D904201AF09B
:1088E0003BFF002084F8400110BD11B1D4F84431A1
:1088F0000B6012B1D4F8483113600120F4E700BFD7
:10890000681700200E49D1F8883043F47003C1F88D
:1089100088300C4B1A68002042F001021A609860FF
:108920001A6822F0847222F480321A60064A5A6071
:108930001A6822F480221A60D860044B8B6070475A
:1089400000ED00E000380240103000240000000874
:1089500070470148FFF791BB180000200148FFF75E
:108960008CBB00BF640200200148FFF786BB00BF3C
:10897000B004002070477047024B0348D3F84C11F5
:108980004AE600BF681700200000014010B5064C01
:108990000648D4F84C11FFF73FFED4F86C11044898
:1089A000BDE8104038E600BF681700200000014015
:1089B0000040014010B5064C0648D4F84C11FFF7B2
:1089C0002BFED4F870110448BDE8104024E600BF27
:1089D00068170020000001400044014010B5064C1B
:1089E0000648D4F84C11FFF717FED4F87411044868
:1089F000BDE8104010E600BF6817002000000140ED
:108A000000480140024B4FF08040D3F8501103E67C
:108A100068170020024B0348D3F85411FCE500BF4F
:108A20006817002000040040024B0348D3F8581197
:108A3000F2E500BF6817002000080040024B034821
:108A4000D3F85C11E8E500BF68170020000C004077
:108A50000348D0F8043713B100F5DF6018477047BA
:108A6000000000200348D0F8243713B100F5E3607C
:108A700018477047000000200348D0F8443713B16E
:108A800000F5E76018477047000000200348D0F861
:108A9000643713B100F5EB60184770470000002001
:108AA0000348D0F8843713B100F5EF6018477047DA
:108AB000000000200348D0F8A43713B100F5F3609C
:108AC00018477047000000200348D0F8C43713B19E
:108AD00000F5F76018477047000000200348D0F801
:108AE000E43713B100F5FB60184770470000002021
:108AF0000348D0F8043813B100F5FF6018477047F9
:108B0000000000200348D0F8243813B100F6180004
:108B100018477047000000200348D0F8443813B1CC
:108B200000F6380018477047000000200348D0F8CE
:108B3000643813B100F65800184770470000002051
:108B40000348D0F8843813B100F67800184770470E
:108B5000000000200348D0F8A43813B100F69800B4
:108B600018477047000000200348D0F8C43813B1FC
:108B700000F6B80018477047000000200348D0F8FE
:108B8000E43813B100F6D800184770470000002001
:108B9000204A936803F00C03042B10B520D0082B57
:108BA00020D01D4B1B4C0360A3681C4AC3F3031366
:108BB000134493F8F8180368CB404360A168C1F3ED
:108BC0008221114491F8F81823FA01F18160A1681B
:108BD000C1F342310A4492F8F828D340C36010BD73
:108BE0000F4BDFE75368516813F4800F01F03F012A
:108BF000536814BF0A4A084AB2FBF1F1054A5268A9
:108C0000C2F30142C3F3881301324B435200B3FB5A
:108C1000F2F3C7E7003802400024F400000000200F
:108C200040787D01F0B5446B8668A38923F4005336
:108C30001B041B0CA3818279278A0546BFB210034F
:108C400012F0040F4FEA022100F400506A7927F471
:108C5000405740EA0700208214BF4FF4805C4FF079
:108C6000000C12F0010F0CBF002304239207A2890D
:108C700022F4B05201F4806122F00C0248BF43F0AC
:108C8000080341EA0C0112040B43120C1A43A2819F
:108C9000A38A23F440731B041B0C85B0A38268468F
:108CA000FFF776FF214B9C4203D003F580639C4283
:108CB0003AD1039BA2891921170401FB03F34FF05A
:108CC00064014CBF7600B600B3FBF6F3B3FBF1F0E2
:108CD00001FB10330201A08900044BBFDB001B0124
:108CE000323332334BBFB3FBF1F3B3FBF1F303F099
:108CF000070303F00F0313439BB223816A6BAB7925
:108D000013F0080F938A0BBF23F008039BB21B04D8
:108D100043F0080308BF1B0C938293899BB243F472
:108D20000053938105B0F0BD029BC3E700100140E2
:108D3000816077E7417175E7F0B587B00023009354
:108D40000193744B1A6842F480321A601A6802F474
:108D500000320192009A01320092019A1AB9009AE7
:108D6000B2F5A04FF2D11B6813F4003318BF0123F2
:108D70000193019B012B40F0B180664B66491A6C50
:108D800042F080521A640A6842F440420A609A68CB
:108D90009A609A689A609A6842F480529A605F4A30
:108DA0005A601A6842F080721A601A689201FCD503
:108DB0005B4A40F2027111609A6822F003029A60E5
:108DC0009A6842F002029A60524A936803F00C03D8
:108DD000082BFAD19368534C03F00C03042B7FD07B
:108DE000082B7FD0504BC4F808394A4B4F4D9A6836
:108DF0004F48C2F303122244002692F80C19D4F80B
:108E00000829CA40C4F808294A4AEA605A6F4A4AFF
:108E1000AA605A6B22F080025A635A6F42F0807245
:108E20005A67196B454A0A431A635A6B5A631A6C9C
:108E300042F0875242F4F61242F41F6242F00F02EF
:108E40001A64596C3E4A0A435A6402A948F2FF73F5
:108E5000CDE902364FF6FF77FFF783F900F5806022
:108E60000297FFF77EF900F580600297FFF779F926
:108E700000F58060FFF775F900F58060FFF771F984
:108E80000846FFF785FE029B2E4AB3FBF2F32E4AFB
:108E9000C2F88431D5F8FC302C4A43F08073C5F811
:108EA000FC302B4BC3F8B02F5E601A6842F0010211
:108EB0001A60D4F808394FF47A72B3FBF2F3013B2D
:108EC000B3F1807F08D24FF0E0225361F02385F8A0
:108ED000233007239661136107B0F0BD00BFFDE7A3
:108EE0001C4B80E75368516813F4800F01F03F0179
:108EF000536814BF174A0C4AB2FBF1F1054A526895
:108F0000C2F30142C3F3881301324B435200B3FB57
:108F1000F2F368E700380240007000401930400466
:108F2000003C0240000000200024F40000ED00E0BE
:108F3000000002400003FA05000000081F906700CF
:108F40003357070040420F006817002055CEACC5CC
:108F5000001000E040787D0182B000230193054BB2
:108F60000193019B03EB80000190019B196002B00B
:108F7000704700BF50280040F0B59C0827010E46FE
:108F8000154600EB0414A04206F1100605F1100589
:108F900008D103F0030339443A4404EB83039C42B1
:108FA00023D1F0BD84469CED006A16ED045AD0ED45
:108FB000016A56ED037A90ED027A56ED025A26EEDA
:108FC000056A66EEA76AD0ED037A05ED046A16ED30
:108FD000016A45ED036A27EE257A67EE867A10303E
:108FE00005ED027A45ED017ACDE7F4EC017AB1ECBA
:108FF000017A67EE877AE2EC017AD0E74A09012329
:1090000001F01F0103FA01F150F82230194214BF98
:109010000120002070474A09012301F01F0103FAD3
:1090200001F150F822300B4340F8223070474A09D2
:10903000012301F01F0103FA01F150F8223023EA65
:10904000010340F82230704710B50A4441F2210470
:109050008A4200D110BD11F8013B80EA03200823A9
:1090600010F4004F4FEA400018BF6040013B80B24F
:10907000F6D1EDE74840082310F0800F4FEA40009A
:1090800018BF80F0D500013BC0B2F5D1704710B5D4
:109090000A440C46944200D110BD14F8011BFFF79E
:1090A000E9FFF7E738B50A46056804460020AA42FA
:1090B00003D36B1C2360287038BD12F8011BFFF727
:1090C000D9FFF4E7DFED0A7AC0ED020A20EE270AA5
:1090D000B7EE007AC7EE007A00230360C0ED017A94
:1090E00070EEA77A80EEA77A80ED037A704700BF12
:1090F000DB0FC94090ED017AD0ED007AC0ED020A95
:1091000030EE877AC0EE876A30EE677AE6EE877ACD
:10911000B0EE670AC0ED007A7047012303700023A8
:10912000C364836403650364436443658362836546
:109130007047DFED157A80ED010AF4EEE70AF1EEF3
:1091400010FAC0ED020A80ED031AC0ED051A18DD11
:10915000B4EEE70AF1EE10FA10DD81EE007AC0EE0F
:10916000207AF0EE006A77EE877A86EEA77A80EDB5
:10917000047A80ED0F2AC0ED0E2ACEE700230361AA
:10918000F7E700238360FAE7BD378635FDEEC07A46
:1091900017EE903A2033402B43D8DFED237A9FED32
:1091A000237AB4EEE70AF1EE10FA28DCDFED207A3C
:1091B0009FED1E7AB4EEE70AF1EE10FA22D4DFED4D
:1091C0001D7AB4EEE70AF1EE10FA1EDD30EE670A02
:1091D00037EEC00A60EE007ADFED176A9FED177A6E
:1091E000A7EEA67ADFED166AE7EE876A9FED157A9D
:1091F000A7EEA67A20EE276AA6EE070A704730EEA1
:10920000470ACEE730EE070AD4E79FED0F7AB4EEB7
:10921000C70AF1EE10FA44BF30EE270A37EE400AD3
:10922000D8E79FED0A0A7047DB0F4940DB0FC940C2
:10923000DB0F49C0DB0FC93F9A7C2E36FAAF4FB91E
:109240003587083CA4AA2ABEDB0FC9BF0000000076
:10925000DFED027A30EE270A98E700BFDB0FC93F47
:1092600038B51D46304BB3FBF2F39942B0EE405A8D
:10927000F7EE005A4FF000044FD207EE901A9FED20
:109280002B7ADFED2B6AF8EE677A67EE877A07EEC6
:10929000102AB8EE477A27EE267AC5EE876A87EE5F
:1092A000A64AB0EE440AFFF771FFF0EE404AB0EE76
:1092B000440AFFF7CDFF35EE055A012D84EE854AAD
:1092C000F0EE407A1CBF35EEE76AF6EE006AB8EEC3
:1092D000000A34EE257A12BF66EE266A27EE806A0F
:1092E000F0EE656A86EE875AC6EE076A67EE807A08
:1092F00075EEC45AC0ED016AC7EE876AC5EE877A7B
:1093000080ED005A80ED025AC0ED036AC0ED047A88
:10931000846144610462C46138BDC0ED005A446098
:109320008460C4600461F3E720A10700DB0FC9403B
:10933000BD3786359FED010A002391E7F304353FE1
:10934000F0EEE06AB0EEC07AF4EEC76AF1EE10FA21
:10935000D4BFB0EE476AB0EE666AB5EE406AF1EE91
:1093600010FAF0EE405A46D0F4EEC76AF1EE10FA69
:1093700054BFB0EE475AB0EE665AC5EE067A9FED7E
:109380001F6A9FED1F5ADFED1F4AA7EE865A9FED19
:109390001E6AA5EE276A9FED1D5AA6EE275A9FED7D
:1093A0001C6AA5EE276A9FED1B5AE7EE854AB7EEC9
:1093B000005AA4EEA75AF1EE467A87EE850AF4EE3B
:1093C000C76AF1EE10FA48BFDFED137AF5EEC00A76
:1093D00048BF37EEC00AF1EE10FA48BFDFED0F7A52
:1093E000F5EEC05A48BF37EEC00AF1EE10FA48BF9A
:1093F000B1EE400A7047DFED0A7AC0E739094E3D09
:10940000E3B59EBE69A2163E88FA16BE45FE7FBF32
:10941000A7DFA8B499FB243FDB0FC93FDB0F49400E
:109420000000000044F25063984203DDA0F50C40B8
:10943000A0387047034B9842BCBF00F50C40A030E9
:10944000704700BFB0B9FFFF48F69F43984203DD65
:10945000A0F50C40A03870470028BCBF00F50C40B8
:10946000A030704791ED005A08B5B0EE450AFFF7FD
:10947000EFFEF0EE405AB0EE450AFFF787FE91EDA1
:10948000015AF0EE404AB0EE450AFFF7E1FEF0EE79
:10949000403AB0EE450AFFF779FE91ED023AB0EEA0
:1094A000405AB0EE430AFFF7D3FEB0EE404AB0EEAA
:1094B000430AFFF76BFE25EE806A63EEC07A24EE66
:1094C000847AC0ED017AF0EE467AE5EE077A25EE71
:1094D000843A64EE806AC0ED037AF0EE437AE5EEFA
:1094E000667AA5EE067AE5EE436A23EE844A64EED8
:1094F000E34A65EEA35A80ED004A80ED025AC0EDC2
:10950000047AC0ED054AC0ED066A80ED077AC0ED29
:10951000085A08BD034600F1400100221A615A6151
:109520009A61DA6110339942F8D1102200214CF08F
:1095300069BC91ED007AD0ED047AE7EE077AC0EDD0
:10954000047AD1ED006A91ED017AD0ED057AE6EE6C
:10955000877AC0ED057AD1ED006A91ED027AD0EDFF
:10956000067AE6EE877AC0ED067A91ED007AD0EDC4
:10957000077A77EE877AC0ED077AD1ED016A91ED2F
:10958000007AD0ED087AE6EE877AC0ED087A91EDA0
:10959000017AD0ED097AE7EE077AC0ED097AD1EDCC
:1095A000016A91ED027AD0ED0A7AE6EE877AC0ED93
:1095B0000A7A91ED017AD0ED0B7A77EE877AC0EDD9
:1095C0000B7A91ED007AD1ED026AD0ED0C7AE6EEDD
:1095D000877AC0ED0C7AD1ED026A91ED017AD0ED77
:1095E0000D7AE6EE877AC0ED0D7A91ED027AD0ED34
:1095F0000E7AE7EE077AC0ED0E7A91ED027AD0EDA1
:109600000F7A77EE877AC0ED0F7A91ED007AD0ED80
:10961000107A77EE877AC0ED107A91ED017AD0ED6D
:10962000117A77EE877AC0ED117A91ED027AD0ED5A
:10963000127A77EE877AB7EE007AC0ED127AD0ED23
:10964000137A77EE877AC0ED137AD1ED017AD1EDF6
:10965000006A91ED027A67EEA77AE6EEA67AE7EE67
:10966000077A90ED007AA6EEA77A80ED007AD1ED28
:10967000016A90ED017AA6EEA77A80ED017AD1ED2C
:10968000026A90ED027AA6EEA77A80ED027A90ED5A
:10969000037A77EE277AC0ED037A70472DE9F0431D
:1096A000034685B000F11007054600261C46AC466F
:1096B00012E0F8EC016A1EED047AD4ED007AE6EED1
:1096C000C77AC4ED007A98450EF1100EF1D104343A
:1096D000BC420CF1040C03D0A7F11008E646F2E7F7
:1096E00001361C46B646BEF1040F1FD000EB0E1C1F
:1096F000A84604F1100909E0FCEC016A18ED047AAF
:10970000D4ED047AE6EEC77AC4ED047ACC4508F1CC
:109710001008F1D1D4ED046A93ED007AC6EE877A91
:109720000EF1010EC4ED047A6446DCE7042E03F169
:10973000140305F1040507F11007B7D100230093C6
:109740000193029303936C460023142752F8045BA1
:1097500044F8045B07FB030C00EB03156E466545FC
:109760001FD10133042BF1D104AD103100F14002BF
:1097700055F8044D0E4600EB031741F8044D14460E
:10978000A742D1ED007A17D152ED016A87EEA67A91
:10979000013BA2F1140281ED007AE9D105B0BDE8E8
:1097A000F083B6EC017A54ED017AF5EC016AE6EE4D
:1097B000C77A44ED017AD2E7F4EC016AB6EC017A9B
:1097C000E6EEC77AC1ED007ADAE79FED0C7A00F198
:1097D0000C03F0EC017AF4EE677AF1EE10FA06D79A
:1097E000F0EEE77AF4EE477AF1EE10FA03DC9842F5
:1097F000EFD1012070470020704700BFFFFF7F7F3F
:109800001FB50C46024669461030FFF747FFDDEDF5
:10981000007AB6EE007A67EE877A2046C4ED007AC9
:10982000DDED017A67EE877AC4ED017ADDED027A2B
:1098300067EE877AC4ED027AFFF7C7FF04B010BD68
:1098400060EEA00A20EE400A70EEA00AC0EE200AE8
:109850009FED010A47F04ABC54F82D40B5EEC00A0E
:10986000F1EE10FA08B506DB47F09EFCB4EE400AB4
:10987000F1EE10FA01D79FED010A08BD00000000CB
:10988000F8B52DED028B044625461C3004F1640228
:1098900050ED017AB1EC010A77EE807A40ED017A61
:1098A000FEF76AFD18309042F2D123692C4E6268AF
:1098B00001332361336A9B1AA26893422CD99FED2E
:1098C000298A04F13007EB6A012BC1BF03F1FF3392
:1098D00007EE903A95ED0A7AF8EEE77AD4BFB0EE4B
:1098E000480A87EE270AFFF7B9FFBD42D4ED057A93
:1098F00015D0F4EEC07AF1EE10FA05F11805E2D5B4
:10990000237B4BBB326A626000222361A261E36267
:1099100022636364A264E365BDEC028BF8BDF4EEE0
:10992000C07AF1EE10FAEBD4D4ED047AD4ED066AE5
:10993000F8EE677A022386EEA77AD4ED0C6A84EDFE
:10994000067A86EEA77AD4ED126A84ED0C7A86EE5A
:10995000A77A84ED127A00E003232370DCE700BFCE
:10996000681700200000000038B50378012B04467A
:1099700039D10369244D1BB942680AB92A6A426089
:10998000D4ED067A77EE807A01332361C4ED067A4E
:1099900004F11C00FEF7F0FC62682B6A9B1AA268B7
:1099A000934220D9E36A012BC3BF03F1FF3307EED3
:1099B000903A94ED0A7A9FED150AC4BFF8EEE77A63
:1099C00087EE270AFFF74AFFD4ED057AF4EEC07A56
:1099D000F1EE10FA0BD5237B33B92A6A62600022BC
:1099E0002361A261E36238BD03232370FBE7D4ED5A
:1099F000047AD4ED066AF8EE677A022386EEA77A37
:109A000084ED067AF1E700BF68170020000000002F
:109A100008B52DED028BF0EEC08AB0EE408AB7EEAD
:109A2000000A30EE680AFFF719FF9FED0E7ADFEDAE
:109A30000E7AE8EE877A9FED0D7AA7EEA87ADFED31
:109A40000C7AE7EE287AB5EEC08ABDEC028BF1EE17
:109A500010FA20EE270A44BFDFED067A37EEC00A7F
:109A600008BD00BF306E99BC2716983D843459BE9E
:109A7000A40DC93FDB0F494060EEA00AE0EE000AEA
:109A8000B0EE600AEAE660EEA00AE0EE000AE1EE5F
:109A9000010AB0EE600AE1E670B52DED028B82B0EE
:109AA0000E4615463FF07CFA002869D0364B374CFD
:109AB0001B6894F8882103F00203002A45D0002B8C
:109AC00059D00DF1060023F0FDFC314ABDF80630F7
:109AD000D2F8EC139FED2F7A5B1A07EE903AF8EE6E
:109AE000E77AF0EE405A87EE870A02F58062DFEDF2
:109AF0002A7A20EE270AFFF7ABFB92ED008AA0EE50
:109B0000658A38F073FDD4ED650AD0ED057AB0EEC4
:109B1000480A70EEA70AFFF7AFFF7EB1DFED1F7AAC
:109B20009FED1F7A20EE000A20EE270AC0EE077A8A
:109B30009FED1C7A77EE877AC6ED007A0DB11A4B4D
:109B40002B6002B0BDEC028B70BDA3B1B4F9BA3189
:109B500001EE103AB4F9B83100EE903AB4F9B631EA
:109B600000EE103AB8EEC11AF8EEE00AB8EEC00AFC
:109B7000FFF789FFD1E7D4F8D03193ED340ACCE771
:109B80009FED0A0AC9E700BF38D5002068170020FA
:109B9000983700200000C84235FA8E3CCDCC9C3F5F
:109BA00000409C4682E6C547331390430000000006
:109BB0002DE9F74F90469DF83020002A14BF4FF052
:109BC00030094FF020090D9A1C1E05460F46BABFFA
:109BD00064420123002312F8011B01B12CB9A246F3
:109BE00063B100240D9EA41B12E0013CF3E7BD42CB
:109BF00004D2494628460193C047019BBAF1010AA5
:109C0000F5D2EFE7BD4203D228460193C047019B3E
:109C100006EB040B16F8011B0029F3D133B15446AF
:109C2000002C07DCBAF1000FA8BFD344584603B09C
:109C3000BDE8F08FBD4202D249462846C047013CEC
:109C4000EEE70EB403B503AB074953F8042BCDE997
:109C5000003001A845F077FD019B00221A7002B088
:109C60005DF804EB03B07047C783000803685A1C13
:109C7000026019700368090A5A1C02601970704763
:109C800003685A1C0260197003685A1C02600A0AB1
:109C90001A7003685A1C02600A0C1A700368090ED5
:109CA0005A1C02601970704703685A1C02600A0A45
:109CB0001A7003685A1C02601970704738B5044660
:109CC000006815464CF09EF823682B44236038BD8D
:109CD00038B504460068154649F0F4FE23682B4465
:109CE000236038BD03685A1C026018787047036807
:109CF0005A1C02601A4612F8021B0260587841EAA8
:109D00000020704710B502681146531C036011F81B
:109D1000024B0160D31C5178036093781B0443EA23
:109D20000123111D0160D078234343EA006010BD78
:109D3000D1E900329A4206D05A1C0A6008B11B7859
:109D400003700120704700207047D1E900239B1A5F
:109D5000012B10B50446084604DDFFF7C8FF20803C
:109D6000012010BD0020FCE730B50A4404469142B2
:109D700001D1002011E014F8013BA3F141001928A2
:109D800011F8010BA0F1410598BF2033192D98BFA0
:109D900020301B1A02D10028E9D130BD1846FCE75B
:109DA0006FF00042E0E710B50288C378A2F5FA62CE
:109DB000910840F2B554013B04FB013381780C2437
:109DC000013902F0030204FB02120C49847901EB11
:109DD00042021821D2881344027901FB03224379FD
:109DE00000893C2101FB0233054A224401FB032286
:109DF0004FF47A730021C2FB030110BD446E0508C5
:109E000080436D382DE9F04190461F4605464FF4DA
:109E10007A7200234046394646F084FC274B3C21A9
:109E2000034493FBF1F201FB1233AB7192FBF1F3AC
:109E300001FB13226A7140F2B551182293FBF2F430
:109E400002FB143394FBF1F201FB1244B4F5896F69
:109E50002B714FEA82032DDA40F2DA2294422BDC96
:109E6000B4F5B77FB4BF00210121154A182000FBCB
:109E700001220B2632F81600A04201DD013EF9D185
:109E800003F5FA630B442B80731CAB700C2303FBAC
:109E900001660C4B03EB46060134F388E41AEC70C0
:109EA0004FF47A7200234046394646F03BFC2A8143
:109EB000BDE8F0810321D8E70221D6E780BC92C734
:109EC0004A6E0508446E0508F0B5274D06460F4654
:109ED0000FCD8DB06C460FC40FCD0FC495E80F00A9
:109EE00084E80F0016F003033AD1642196FBF1F2E7
:109EF00001FB126242B94FF4C87296FBF2F302FB07
:109F00001363003B18BF0123721EC3F11D03002A17
:109F1000019340F26D13104606FB03F3B8BFB01C6B
:109F200003EBA0006FF0630392FBF3F318444FF4CC
:109F3000C87392FBF3F210440630694600240725EB
:109F4000013F51F8042BA74202EB000393FBF5F00D
:109F5000C0EBC000A3EB000004D1101A0DB0F0BD9F
:109F60000123D1E70134ECE7AC6E0508074BD3E9D8
:109F7000761251EA020C07D01B6A5B1842F100020C
:109F8000C0E90032012070470020704768170020A8
:109F900037B505466846FFF7E9FF044638B1DDE905
:109FA00000232846FFF72EFF204603B030BD40F2C5
:109FB000011328806B80A880A8712881F4E71FB561
:109FC0000190FFF7E5FF0199044648B1064B0DF1FA
:109FD0000E02B3F8E031ADF80E30084641F06EFBEA
:109FE000204604B010BD00BF68170020F0B5012462
:109FF000B0FBF4F58D4203D200261CB91C70F0BDF5
:10A000004C43F5E7B0FBF4F5B4FBF1F704FB1500A6
:10A010002EB9002D03DC8C420CD33C46EDE7092D14
:10A0200008DD002A14BF372457242C4403F8014BC1
:10A030000136F2E73024F8E7A0F13003DAB2092A5A
:10A0400001D818467047A0F16103052B01D8573895
:10A050007047A0F14103052B94BF37384FF0FF3014
:10A06000704770B50446944208461546B4FBF2F6B4
:10A0700002D33046FFF7F5FF05FB1644024B1B5D8C
:10A0800000F8013B70BD00BFF7060608B5EEC00A38
:10A09000DFED2D7AF1EE10FACCBF30EE270A30EE6C
:10A0A000670ADFED2A7A20EE270A30B5FDEEC07A86
:10A0B00087B017EE904A054684EAE470002303A9AE
:10A0C000A0EBE470CDE90033029343F01BFC002CBD
:10A0D000ACBF20232D2303A88DF8003045F0FAFCF7
:10A0E000012822D130238DF801308DF802308DF80F
:10A0F000033003A968464CF0D5FD684645F0EAFCFC
:10A100000338C4B222466946284649F0DBFC0023E6
:10A110002B550F4928464CF0C5FD0DEB0401284690
:10A120004CF0C0FD284607B030BD022805D13023D1
:10A130008DF801308DF80230DBE7032804BF3023AF
:10A140008DF80130D5E700BF6F12033A00007A4462
:10A150009537060830B50278202A034600F1010041
:10A16000F9D0092AF7D02D2A4BD10346BFEE000AB9
:10A170009FED3C7A1A46F2EE046A134612F8010B80
:10A18000A0F13001CCB2092C41D92E280BD1F2EE2E
:10A19000046A1146B0EE666A0B4611F8012B303A9C
:10A1A000D0B209283CD91A7802F0DF02452A53D1EF
:10A1B0005A782D2A3FD102330120013B00220A2583
:10A1C00013F8011F3039CCB2092C3AD9B2F59A7F75
:10A1D0001346DFED256A28BF4FF49A731A46F7EE4F
:10A1E000007A072A30D8DA086FF0070101FB023342
:10A1F000F2EE046A63BB88B3C7EE276A20EE260A34
:10A2000030BD2B2A08BF0346B7EE000AB0E707EEC1
:10A21000901AF8EEE77AE7EE267AB0EE677AACE7C6
:10A2200007EE902AF8EEE77AC7EEA65A66EE866A3F
:10A2300037EE257AB0E72B2A14BF01330233002012
:10A24000BBE705FB0212BBE767EEA67A083AC8E750
:10A2500067EEA67A013BCDE7F7EE007A67EE276A54
:10A26000CCE700BF0000000020BCBE4C70B5034628
:10A2700010F8012B202AFAD0092AF8D02D2A0ABF7B
:10A28000034601254FF0FF35591E00240A2611F818
:10A29000010FFFF7D1FE092802D905FB04F070BDBC
:10A2A00006FB0404F3E710B50023802804D893428A
:10A2B0000AD2C854581C10BD934205D060F07F04E8
:10A2C000CC54C0090133F0E74FF0FF30F3E770B52D
:10A2D0001249134C134E01220020FEF7B5FE2288CE
:10A2E00062B1A31DB34217D2A518B54214D2052AF4
:10A2F00012D92146FEF7A8FE2C46F0E7214602229D
:10A30000FEF7A2FE63880849084AC31A641A584235
:10A31000A2F8E441584170BD0020FCE7004000086D
:10A320000140000800800008FC3F0008681700207A
:10A33000034AD2F8E83123EA0000C2F8E801704786
:10A3400068170020034606490648884201D30020CA
:10A3500070470288C2F30B029342F9D01430F4E73D
:10A36000C8720608046E060813B542880B460446F8
:10A37000C2F30B020021184601924BF043FD216904
:10A3800003460A48814209D30948019A814205D20D
:10A39000184602B0BDE8104049F094BB21B1184600
:10A3A00002B0BDE81040084702B010BDC8720608F0
:10A3B0006F77060810B4B0F902404288002C0B46B3
:10A3C00041685DF8044BBEBFC2F30B02DBB203FB76
:10A3D0000211C9E730B5094B094CA34200D330BD87
:10A3E000B3F902205988002A06DA5A68DD68C1F3F9
:10A3F0000B0100FB01222A601433EEE7046E06080D
:10A40000C872060830B502460144002012F8015B0C
:10A41000082480EA050313F0010F4FEA50001CBF27
:10A4200080F08C03D8B2631E13F0FF044FEA550589
:10A43000EFD18A42EAD130BD144951F8200070B5FD
:10A4400000B30C2202FB001292F9ED31581C1AD015
:10A4500092F8F501B0B1C8188C2590F8406292F8D6
:10A46000F441002014226B431D1901EB4505013A0C
:10A47000B5F84452344410FA85F0F5D11423B0FBFA
:10A48000F3F080B270BD0020FCE700BF6817002029
:10A4900038B503200D461446FFF7CEFF07EE900AAD
:10A4A0008DB19FED0B7AF8EE677AF0EE006A67EEF9
:10A4B000877AB8EE047AA7EEA67ADFED067A67EE21
:10A4C000277AC5ED007A0CB1034B236038BD00BF7D
:10A4D0006740533A00007A443313904310B5427AF0
:10A4E000044632B10146406851F80A3B98470023C0
:10A4F000637210BD10B4447A621C0444D2B242723A
:10A50000A172037A934202D85DF8044BE6E75DF846
:10A51000044B704710B503681A79022A044602D129
:10A52000987A44F0A3FF00232360237110BD73B514
:10A530000279022A3BD1032490F910308DF80340B0
:10A540001D4C8DF80220142606FB03431B4ED3F846
:10A550001C3900250120B3428DF800508DF8010010
:10A5600027D0174DAB4203D0164883421FD1104667
:10A5700001F108020DEB02011A8811F8085C22F0C3
:10A5800040021204120C14211A8001FB00401A88A8
:10A59000D0F8281922F0380231F825101204120CD4
:10A5A0000A431A801A8892B242F040021A8002B01E
:10A5B00070BD2846DCE700BF0000002000300140ED
:10A5C00000380040003C00400368DB6B13B50446D4
:10A5D0002BB923685B6B3BB9FF23E38202E098470A
:10A5E0000028F6D102B010BD214601A898470028E6
:10A5F000F2D0BDF80630013B9BB2EEE710B5036820
:10A6000004469B68984701236374FF23A37410BD1D
:10A61000036810B504461B689847236820469B686A
:10A620009847E37C0133E37410BD036810B504461A
:10A630005B689847236820469B689847E37C013B0A
:10A64000E37410BDF0B585B0044618460D461646B5
:10A65000039345F03FFA2268E67328440021A07373
:10A6600000915769039B324629462046B84705B0FA
:10A67000F0BD30B5046885B0E469089D34B10DB90A
:10A680000DF10F050095A04705B030BD2046FBE752
:10A6900003685B6A184703689B6A184710B5037B19
:10A6A00004460BB1437B13B92046FFF7F4FF236840
:10A6B0002046DB68BDE81040184703685B6C03B1B7
:10A6C0001847704738B504468B6801600D469847B7
:10A6D0000B4B2361002323752B6B13B12046984746
:10A6E0002075084B93F88C351BB1237D23F00103B3
:10A6F00023750023E3822046BDE8384064E700BFAD
:10A700000001FF006817002003681B6803B11847A9
:10A71000704703685B6803B11847704703681B6A9A
:10A7200003B11847704703685B6A03B11847704765
:10A7300030B40468A46A14B1A44630BC604730BC8D
:10A74000704730B40468E46A14B1A44630BC604772
:10A7500030BC704703685B6C03B1184770470368EF
:10A760009B6C03B11847704703689B6F03B1184790
:10A7700070470368D3F8803003B118477047036807
:10A78000D3F8843003B1184770470368D3F8883092
:10A7900003B11847704721B10B68D3F88C3003B16F
:10A7A00018470020704738B5094B052404FB0030DA
:10A7B000A0F1A00515F8010B013C44F0E2FB14F0F8
:10A7C000FF04F7D12046BDE8384044F0DABB00BFB3
:10A7D000DC6E050810B5441E14F8010F00B910BD59
:10A7E000FFF7E1FFF8E7FDF788BFFDF786BFFDF74C
:10A7F00084BFFDF782BFFDF780BFFDF77EBF10B1BC
:10A80000036882885A83704737B50C460546F0B115
:10A810000368104A03F13F4303F57E039B0AD05CB3
:10A8200043F04EF8AB88009304F003038DF8043036
:10A83000C4F381038DF805302868C4F3001369461A
:10A8400064098DF806308DF80740FDF78AFC03B0E7
:10A8500030BD00BF446E050838B50409013C032C27
:10A8600000F00F021AD80E4D05EB4403B3F83C1369
:10A8700041FA02F313F001000FD0012303FA02F2B0
:10A88000013A02EA01002C4445F0B4FF94F8443345
:10A890001844044B0C2202FB003038BD0020FCE7BA
:10A8A000446E0508F81C00202DE9F043654F07EBC6
:10A8B000C00985B005464FEAC00899F87009FFF74E
:10A8C000CBFF064699F87109FFF7C6FF044699F8D1
:10A8D000720942F0F5FF6B1CDBB21EB140F60C12A0
:10A8E000F28033721CB140F60C22E2802372042203
:10A8F0003A213046FDF720FF204604223A21FDF799
:10A900001BFF07EB0803D3F86C494F4B9C4263D104
:10A9100003F5F2331A6A42F400121A621A6A22F438
:10A9200000121A62474497F87339022B6ED0032B3A
:10A930006ED0464E464A012B08BF1646A78827F020
:10A940003F0768463F04FEF723F93F0C029A414B4C
:10A95000B2FBF3F398B20743A780218821F00101ED
:10A960000904090C21803C498E4253D13B4BB2FB78
:10A97000F3F2013092B2042A80B238BF042220845C
:10A98000A28323889BB243F001032380238823F40E
:10A99000816323F002031B041B0C43F480632380B8
:10A9A0004FF480432381238823F080031B041B0C76
:10A9B000238023889BB243F001032380284B03EBC1
:10A9C0004513012283F8E127002283F8E05783F83A
:10A9D000E22705B0BDE8F083224B9C4209D103F584
:10A9E000F0331A6A42F480021A621A6A22F4800270
:10A9F00097E71D4B9C4295D103F5EE331A6A42F45A
:10AA000000021A621A6A22F400028AE7124E95E7DF
:10AA1000124E93E706EB4606B2FBF6F291B2C2F392
:10AA20000B020AB941F0010141F400424FF4967162
:10AA30004B434FF47A71B3FBF1F301339BB22384A0
:10AA40009EE700BF0000002000540040801A06006E
:10AA500000350C0040420F00A0860100400D0300AD
:10AA60006817002000580040005C00402DE9F047C6
:10AA70009846464B914603EB80020546D2F8484380
:10AA8000002C00F0818003F55A73636004F13E03EB
:10AA9000A36104F59F73E3614FF48073C4E9043349
:10AAA000236894F83D00E160A363FFF7D5FE0646F6
:10AAB00094F8440294F83CA0271D08B142F000FF2E
:10AAC00094F8450208B142F0FBFED4F840321BB1C5
:10AAD0002F4A116B0B43136318F0080F2ED001356A
:10AAE000EDB21EB140F20673F380357218F0100F0C
:10AAF00094F846221CD002213046FDF71DFE94F941
:10AB00004712D4F8483294F847221B010029DBB2DF
:10AB100035DB2048441802F01F0284F8003349094D
:10AB2000012303FA02F240F821203846BDE8F087FD
:10AB300018F0200F14BF12213221DDE719F0020FA7
:10AB40000CD06B1CDBB21EB140F20652F2803372A5
:10AB500094F8462202213046FDF7EEFD19F0010F70
:10AB6000CDD05046FFF778FE0135EDB218B140F276
:10AB70000663C380057294F846220221BDE70649A8
:10AB800002F00F028B54D0E72746CEE7446E05084B
:10AB90000038024000E100E014ED00E02DE9F84348
:10ABA0001E46234B9DF820509DF8247098428946FC
:10ABB00090462BD13B462A4631460020FFF756FFF0
:10ABC0000023C0E90733C0E90933C0E90B98457198
:10ABD000866087710446FEF725F8EA0707D5636BA0
:10ABE0004FF6DF721A80DA6842F02002DA60626B98
:10ABF000AB0742BFD36843F08003D36093899BB215
:10AC000043F4005393812046BDE8F883094B9842F2
:10AC100004D13B462A4631460120CFE7064B9842F5
:10AC200004D13B462A4631460520C7E70024EAE71F
:10AC30000010014000440040001401402DE9F74F8E
:10AC400004465422B74800214BF0DCF8B64A601E97
:10AC500015460334134610F8011F4E1E052E88BFFB
:10AC60000021844245F8041BF5D1AF48002150F87B
:10AC7000044B012C00F0CC8101310429F7D10021D3
:10AC800052F8040B022800F0BA8101310429F7D1EF
:10AC90000320FDF7B4FB0420FDF7B1FB0520FDF711
:10ACA000AEFB0620A14E9F4CDFF8C082FDF7A7FB4C
:10ACB0004FF01A094FF0000A06F56677207B48B37B
:10ACC00094F90D50FFF7C8FD28B1052383710023C7
:10ACD00080F8079003721321FFF796FD227B002373
:10ACE00017F83310914240F0E18006EBC303D3F82C
:10ACF0009C332361182303FB0585D5F89839237508
:10AD00005A1C0723A3750123C5F89829637585F894
:10AD100094399A4409F101095FFA89F9B9F1200FD0
:10AD200004F10C04CAD1BAF1000F00F0BC80804CD1
:10AD3000DFF83C924FF00008237C002B00F0A98044
:10AD4000607942F0BDFD207942F0BAFDA1680B6840
:10AD500023F001030B6000230B604B608B60CB6022
:10AD60000B6121234B61734B994240F0A5803D223A
:10AD700043F8082C0F68E3682268606927F07E6753
:10AD800027F45F3727F470773B4343F40B3343F4E6
:10AD900080730B604B691425454323F0070302F1D0
:10ADA0004C064B614D608E60C1F80C900B68624D93
:10ADB00043F001030B606968604B0B4043F4403380
:10ADC0006B605368574D012823F04073D4BF0021B6
:10ADD000012123F4807343EA012353609168584BA7
:10ADE0000B4043F002039360D36A013823F47003ED
:10ADF000C0B243EA00504FFA88F10123D0629C466A
:10AE000001914FF01F0E697D61B395F90D10019806
:10AE1000814227D1297CAE7D5F1C0929FFB240F217
:10AE2000C480A1F10A00D2F80CA000EB40004FF062
:10AE3000070B0BFA00FB2AEA0B0A06FA00F040EABD
:10AE40000A00D060062B00F2BE80013B506B03EB82
:10AE500083030EFA03F620EA060001FA03F3034324
:10AE600053633B460CF1010CBCF1070F05F10C05D7
:10AE7000C9D1936843F400739360936843F480737B
:10AE80009360936843F001039360936843F08043B9
:10AE9000936008F10108B8F1030F04F1180409F5F3
:10AEA0008C797FF449AF03B0BDE8F08F0133102BEC
:10AEB0007FF416AF00231CE7224B994204D14FF4D4
:10AEC000746243F8202C55E71F4B994204D14FF48C
:10AED000741243F8382C4DE71C4B994204D14FF0C3
:10AEE000746243F8502C45E7194B994203D1194A33
:10AEF00043F8642C3EE7184B994203D1174A43F8B4
:10AF00007C2C37E7164B994203D1164A43F8942C10
:10AF100030E7154B99422DD14FF03D5243F8AC2C00
:10AF200028E700BF5419002068170020446E050868
:10AF3000840900201060024000230140E030FCFF43
:10AF4000FDF7FFC0286002404060024058600240A8
:10AF5000706002403D00002088600240400F0020E9
:10AF6000A060024000003D20B860024000000020C8
:10AF7000AC1900202B4B99423FF4F9AE2A4B994271
:10AF80009DD02A4B9942A2D0294B9942A7D0294B58
:10AF90009942ACD0284B9942B0D0284B9942B4D0BA
:10AFA000274B99427FF4E6AEB6E7106901EB410A00
:10AFB0004FF0070B0BFA0AFB20EA0B0006FA0AF621
:10AFC000304310613EE70C2B0CD8073B106B03EBB2
:10AFD00083030EFA03F620EA060001FA03F30343A3
:10AFE00013633EE70D3BD06A03EB83030EFA03F6CF
:10AFF00020EA060001FA03F30343D36231E721227A
:10B0000083F8042293F84022013283F840223FE67D
:10B01000202183F8F81193F84012013183F840128F
:10B020002DE600BF106402402864024040640240E4
:10B03000586402407064024088640240A064024088
:10B04000B86402402DE9F74FB04D0093B04B9D42DC
:10B0500021D26C798C4240F071812C79844202D0EB
:10B06000002840F06B81EC79944240F067812C68B5
:10B07000DCB11C220021201D4AF0C4FE25602B7982
:10B08000237195F80690C4F808902A7AE260012BA3
:10B0900003D0022B0DD0002407E0E87AFFF7DCFB99
:10B0A0006B7A2374AB7AA0616374204603B0BDE869
:10B0B000F08FE87AFFF7D0FB95F90960A06126745C
:10B0C000A87AFFF7C9FB6061002800F03381914D39
:10B0D0004FF0140808FB0658D8F81C39002B00F074
:10B0E000298198F82E39002B40F0CA8098F824095D
:10B0F00042F0E6FB98F8243903F01F025B090121B6
:10B10000023B01FA02F2032B08D8DFE803F0777163
:10B11000026B81490B6923EA02020A61142303FBD3
:10B12000065393F82109FFF797FB731CDFB28346A0
:10B1300018B140F60A32C2800772142202FB06528E
:10B1400092F82309FFF788FB824618B140F60A52AD
:10B15000C2800772142202FB065292F82209FFF7FE
:10B160007BFB804618B140F60A42C2800772142366
:10B1700003FB065319F0040993F82529019243D0E3
:10B180004A215846FDF7D8FA019A2A215046FDF780
:10B19000D3FA019A40460A21FDF7CEFA142303FBA5
:10B1A0000653019A93F82089B8F1000F07D0404662
:10B1B0000192FFF751FB019A0921FDF7BDFA142313
:10B1C00003FB0653D3F81C29544B9A4223D103F5B1
:10B1D0008433596A41F480515962596A21F480518B
:10B1E000596225E04C494B6923EA02024A6195E71E
:10B1F00049490B6A23EA02020A628FE746494B6A11
:10B2000023EA02024A6289E70A215846FDF794FAC6
:10B21000019A0A21BAE7424B9A4240D103F5003322
:10B22000196A41F480411962196A21F48041196256
:10B23000B9F1000F67D0002108461388014303F4D9
:10B240004153194341F445711180938B23F40063FA
:10B250001B041B0C93830723138213889BB243F0B8
:10B2600040031380B8F1000F04D04046FFF7F4FA12
:10B27000FDF71EF9142303FB0655012385F82E392B
:10B28000606928B1009B83710E23C3710023037290
:10B290000921FFF7B9FA6069FDF70AF905E7214BC3
:10B2A0009A4209D103F5FE33196A41F4004119624B
:10B2B000196A21F40041BAE71B4B9A4209D103F500
:10B2C0008233596A41F400515962596A21F400519C
:10B2D00086E7164B9A4209D103F56843596A41F44F
:10B2E00080115962596A21F4801179E7104B9A4212
:10B2F0009ED103F56443596A41F400115962596AB9
:10B3000021F400116CE70121022096E7A00100085A
:10B31000C002000800000020003802400030014058
:10B3200000380040003C0040003401400050014023
:10B33000005401402046FFF7EDF8ACE60C3586E6F8
:10B34000074B03EB8000D0F818343BB19A881B6898
:10B3500059690A4201D05A8370471A83704700BF67
:10B36000446E0508094B03EB8000D0F8183449B946
:10B3700003B970471A689B88138370471A689B88C3
:10B3800053837047002BF9D1704700BF446E050806
:10B39000002ABCBF80185242002BBCBFC9185B42B8
:10B3A0000028BCBF121A0020F0B584180029A4F1AF
:10B3B0001D04BCBF5B180021002CC8BF121BCC1899
:10B3C0000F3C002CC8BF1B1B0A4E02440B443C27F9
:10B3D0004FF0200C90420CDC06EB40050C4604E0DC
:10B3E00007FB04FE013425F80EC09C42F8DD013055
:10B3F000F0E7F0BDA81F0020154B07B51A6C42F00E
:10B4000080521A64134A01211162134AFF215162CA
:10B41000CA215162532151625B6FDB000AD50023C0
:10B4200001930E4B0193019B0193019B1A680C4BF6
:10B430009A420AD000210120FDF78EFD0849002024
:10B4400003B05DF804EBFDF787BD03B05DF804FBC6
:10B450000038024000000E42002800405028004002
:10B4600076614E6910B50446012022F0CBFE2479A6
:10B4700050B1114B016893F89D2293F89C3219B199
:10B48000944217D09C4215D0052022F0BBFE50B14B
:10B49000094B016893F8E92493F8E83419B1944210
:10B4A00008D09C4206D0A4F1200001288CBF0020C7
:10B4B000012010BD0120FCE700000020094A30B542
:10B4C0000546062400201368AB4205D1D3688B42A1
:10B4D0001EBF431CD160D8B2013C02F11402F2D16C
:10B4E00030BD00BFCC0900202DE9F74F3A4DDFF801
:10B4F000EC80DFF8EC904FF0000B06462F465C46E0
:10B50000A5F6CC1A3A68002358F833108A4245D180
:10B51000DBB24B4493F8003C012B44D0022B4BD0C0
:10B5200038460192FFF79EFF80B9142303FB0BA35B
:10B53000019AD3F8D81901F00C03042B06D1104658
:10B54000FFF7BCFF0134E4B20444E4B20BF1010B99
:10B55000BBF1060F07F11407D4D105F1780728468F
:10B56000FFF780FFA0B9E9684B0711D501F00C0384
:10B57000042B0DD0A64227D921F0080141F0040187
:10B580002868E960FFF79AFF0134E4B20444E4B2AA
:10B590001435AF42E3D103B0BDE8F08F01330E2B79
:10B5A000B2D1FF23B5E7FB681807B9D523F008032C
:10B5B00043F00403FB60B3E7FB685907B0D523F001
:10B5C000040343F00803F5E721F004012868E9606B
:10B5D000FFF774FFDCE700BFCC09002068720508A4
:10B5E000681700200F4B93F80E2C062A14D8DFE8BA
:10B5F00002F0161304070A0D10004FF4FA607047AA
:10B60000B3F8140C70474FF47A6070474FF4FA5057
:10B6100070474FF47A5070474FF47A7070474FF488
:10B62000C870704768170020034AD2F81C2C12B16A
:10B630000F2800D8104770476817002050B1013814
:10B64000002330F0FF019AB203F1010303D140EA75
:10B65000022080B270474008F3E703681B68184770
:10B660000CB430B52B4CD4F8203CA5B01BB9D4F8A1
:10B67000243C002B38D094F8283C994206D9012369
:10B6800003FA00F0D4F82C3C18422DD0216A4FF474
:10B690007A7304A8B1FBF3F203FB12131E49FEF701
:10B6A000D0FA04AB0344289A1C490393054629ABFE
:10B6B00003A8029344F047F8039B591C03910A2105
:10B6C0001970039B0246591CD4F8200C03910021E9
:10B6D000197090B103681B6A03B19847D4F8205CD5
:10B6E00004AC14F8011B21B925B0BDE8304002B00C
:10B6F00070472846FFF7B1FFF3E7D4F8243C002B4E
:10B70000F2D002212A4400910A44FD2004A923F02A
:10B710005DFBE9E7681700201C0706086F83000837
:10B7200010B54FF4004086B022F000FC044690B300
:10B730004FF4004122F05CFD02281AD1226848F241
:10B7400001039A4227D14FF4004041F0D7FC10B3D7
:10B750001F4BD3F8302C82421FD0D3F80C2D9042CF
:10B7600030D0D3F8E82D90422FD00022C3F8242CFB
:10B7700011E00023022294F90400CDE901234FF4E3
:10B78000612200924FF400411A4622F06FFD104BE7
:10B79000C3F8200C28B906B010BD03F54362C3F806
:10B7A000242C0C4B04930C4B03930C4B02930C4B2B
:10B7B00001930C4B00930C4A0C4B02210020FFF725
:10B7C0004FFFE8E703F60C52E9E703F6E852E6E735
:10B7D000681700202D070608360706083F070608E9
:10B7E0004B07060851070608D5140608280706085F
:10B7F000174A38B5D2F8C44E033004EB9003B3F5C2
:10B80000007F19D802F6C865C2F8C43E114A02EB9F
:10B81000810120F00300D1F8D025C3F50073104456
:10B82000C1F8D0050C4A9B000421002005EB8404DC
:10B83000FFF716FF204638BD0021084A0846FFF7EB
:10B840000FFF074A536843F0007353600024F1E789
:10B8500068170020602800205F0706088307060895
:10B8600038D50020C36910B5044623B90921142036
:10B87000FFF7BEFFE061E06910BD10B50446006847
:10B88000FFF7F0FF8378CBB18388DBBA07EE903AFD
:10B89000F8EEE77AC4ED047AC388DBBA07EE903A93
:10B8A000F8EEE77AC4ED057A0389DBBA07EE903A41
:10B8B000F8EEE77A0120C4ED067A10BD1846FCE7E1
:10B8C00010B500680C46FFF7CDFF83784BB1438974
:10B8D0002222DBBA93FBF2F303F26D1323800120E3
:10B8E00010BD1846FCE738B500680D461446FFF752
:10B8F000B9FFD0F8013007EE103ACDB1D0F80530DD
:10B90000DFED166A9FED166A07EE903AF8EE677A59
:10B9100077EEE67A77EEA77AC7EE866AF7EE007AD8
:10B9200076EEE77ADFED0F6A67EEE67AC5ED007A2C
:10B930009CB1DFED0D7ADFED0D6AB8EEC77A27EE28
:10B94000277AC7EE267A9FED0A7A77EEC77A9FEDBF
:10B95000097A77EE877AC4ED007A38BD9AC9CC446B
:10B960009AC94C460E76D7450000484300E0FF4494
:10B97000000048423393884337B500680D461446AB
:10B98000FFF770FFD0F805309FED237A07EE903A6D
:10B99000F8EE677A77EEC77A9FED207A67EE877ABE
:10B9A000B3EE097A67EE877AB2EE047AF4EEC77ADC
:10B9B000F1EE10FA06DCBAEE047AF4EEC77AF1EE94
:10B9C00010FA0CD517EE900A44F0F0F9144ACDE9BC
:10B9D000000104210320FFF743FE03B030BDD0F87F
:10B9E000013007EE103A2DB1DFED0E6A67EEA67A50
:10B9F000C5ED007A002CF0D0B8EE477ADFED0A6A88
:10BA0000DFED0A7AE7EE267A9FED097A77EE877AFC
:10BA1000C4ED007AE1E700BF000000460000803876
:10BA2000910706080AD778430319C83D000048C2A9
:10BA3000339388432DE9F04F2DED028B85B008EE4E
:10BA4000102A01939DF844300293BDF840600368CA
:10BA5000DFF8B88205468946002458F8342093421E
:10BA60000ED1E4B20D2C0FD99F4A00210520FFF71B
:10BA7000F7FD0021084605B0BDEC028BBDE8F08F54
:10BA800001340E2CE9D1EFE7984F07EB840A4FEA17
:10BA9000840BDAF84C31EBB9072164200393FFF7EC
:10BAA000A7FE039BCAF84C01014630B90190904AA9
:10BAB0000520FFF7D5FD0199DCE7194664224AF01D
:10BAC000A1F9DAF84C3108EBC404C3E90043DB61A7
:10BAD0005B63DB645F446A79864CD7F84C7194F8F9
:10BAE00058A602EB4203182101FB027207EBC308C0
:10BAF0004FF0000B4746BAF1050FC8F8085007F1A0
:10BB00000407C2E903BB82F814B003D97A4A594644
:10BB10000420ACE7142202FB0A420AF10103C2F836
:10BB20005CB682F860B6DBB2287984F858360393A5
:10BB3000FEF792FE28B1039B80F806900222C271A4
:10BB40000372029B002B79D02A7A0221FCF7F4FDC4
:10BB5000142303FB0A43B8EE488AC3F85C76D8F88E
:10BB600004301B681D68654B03F60813D3ED007A9B
:10BB7000F8EE677A87EE880ADFED617A30EE270A01
:10BB800045F08CF95F4A2B8895429BB212D002F5A2
:10BB9000806295420ED0B5F1804F0BD0A2F5803275
:10BBA000954207D002F58062954203D002F580628B
:10BBB000954202D123F070039BB2534A954206D0BE
:10BBC00002F5806295421CBF23F440739BB22B8028
:10BBD000019B013B9BB2EB624A4B013880B29D4214
:10BBE000288503D003F580639D4201D100232B8675
:10BBF000142303FB0A434FF00109D3F85C36A5F880
:10BC0000149059688B794F7913F0040803F00202FD
:10BC100018BF00200B681FBF904683464FF0040CEE
:10BC2000814602BF93464FF48070C446032F46D826
:10BC3000DFE817F00C006E00A800E200112102906E
:10BC4000FEF7E2FD0298FEF7DAFD81E71A8C22F09A
:10BC500001021204120C1A84198CB3F804E01D8B33
:10BC6000284A25F0730521F002012D0409042D0C4A
:10BC7000090C49EA0B0993421FFA8EFE45F0600554
:10BC800041EA090103D002F5806293420AD14FF6DE
:10BC9000F3720A4042EA08022EF4407E42EA0C01A6
:10BCA0004EEA000EA3F804E01D835E6319841A8B2C
:10BCB00022F008021204120C42F008021A83B3F8B0
:10BCC00044206FEA42426FEA524292B2A3F8442003
:10BCD0001A8892B242F001021A80032F00F2D0803B
:10BCE000DFE807F0BAC8CACCB30706086817002017
:10BCF000D807060860280020F20706080000002088
:10BD00000AD7233C0000014000100040687205087B
:10BD10001A8C22F010021204120C1A84198CB3F837
:10BD200004E01D8B5A4A25F4E64521F020012D043C
:10BD300009042D0C090C4BEA090993421FFA8EFEE7
:10BD400045F4C04541EA091103D002F580629342EF
:10BD50000BD121F0800141EA081121F040012EF4BD
:10BD6000406E41EA0C114EEA800EA3F804E01D83F8
:10BD70009E6319841A8B22F400621204120C42F49E
:10BD800000629BE71A8C22F480721204120C1A844F
:10BD9000B3F820E09D88998B2EF4007221F0730196
:10BDA000DFF8ECE009041204090C120C4BEA090953
:10BDB0007345ADB241F0600142EA092203D00EF5AD
:10BDC000806E73450BD122F4006242EA082222F40D
:10BDD000806225F4405542EA0C2245EA00159D8018
:10BDE0009983DE631A849A8B22F008021204120CE3
:10BDF00042F008029A8362E71A8CDFF894C022F4BA
:10BE000080521204120C1A84198C9D889A8B21F48A
:10BE1000005122F4E64212040904120C090C4BEA08
:10BE200009096345ADB242F4C04241EA093103D089
:10BE30000CF5806C634503D125F4804545EA8015F7
:10BE40009D809A831E6419849A8B22F400621204E6
:10BE5000120C42F40062CDE73433142202FB0A4490
:10BE60000C49C4F864360AEB8A00002201EB800119
:10BE70001A60FFE53833F0E73C33EEE74033ECE798
:10BE8000142303FB0A440023C4F864361B60FFDE5E
:10BE900000000140BC2E00202DE9F3473A4D95F8F3
:10BEA000D4360746002B6CD095F8D56695F8D63673
:10BEB0000136F61A102E0DDD022385F8D736334AE7
:10BEC00010230093002133460420FFF7C9FB02B082
:10BED000BDE8F08795F8E0362D4C012B11D0022BF0
:10BEE00013D02C4B95F8E016C4F81C3C11F0FD0162
:10BEF0000FD0294A0221042002B0BDE8F047FFF725
:10BF0000AFBB42F056FC254BECE742F052FC244B11
:10BF1000E8E77B68B34229DBDFF89880DFF884909C
:10BF2000DFF894A020370C46B442D0DADAF80820C3
:10BF3000B5F8DA36B9FBF3F3C2F300720192B5F843
:10BF4000D82600920321174A57F8040B9BB2FFF73B
:10BF500071FD014688B90523134A85F8D7360420B8
:10BF6000234602B0BDE8F047FFF77ABB04200093F8
:10BF70000E4A85F8D7063346A7E748F8040B013484
:10BF8000D2E70B4AB6E700BF602800202D0806085C
:10BF9000681700203385000859080608B99102087F
:10BFA0004985000840420F00CB080608950806089E
:10BFB000F00806089817002038D5002030B51F4B30
:10BFC0002DED028BD3F80849B4FBF1F303F57F4361
:10BFD00083B0FF331B0CB4FBF3F40023B4FBF1F587
:10BFE000019200932246ABB20221F0EE408AB0EEFD
:10BFF000608AFFF71FFDE0B107EE904AB5EE408A78
:10C00000F1EE10FAF8EE677A0ABF07EE105A67EE03
:10C01000880AF8EE470A9FED0A7AC0EE876A012384
:10C02000037127EE667AC0ED046AA7EEA87A80ED68
:10C03000037A03B0BDEC028B30BD00BF00000020CE
:10C0400000007A442DE9F04FDFF864A1DFF8649135
:10C050009AF80C602DED048B0C2E85B00FDD0123BA
:10C0600089F8D736464A0C23009333460021042032
:10C07000FFF7F6FA05B0BDEC048BBDE8F08FDFF8F2
:10C080003881404B98F8162C3F4988F80E2C032A2B
:10C0900088BF0B46C9F8E4363C4B03EB420393F8E8
:10C0A00094344BB93A4A0221042005B0BDEC048B0C
:10C0B000BDE8F04FFFF7D4BA0368B3421ADB9FED37
:10C0C000358ADFED358A9FED359A08F1DC0400F101
:10C0D00008050027B742CDDADAF8082098F80E3CB8
:10C0E00055F804BBC2F30072032B43D8DFE803F01A
:10C0F00038262E09032289F8D7260093284A33468A
:10C10000B4E70392FFF76EFADFED260A039A0146C1
:10C11000B0EE600A5846FFF751FF206054F8081B44
:10C1200059BB0523204A89F8D73604203B4605B081
:10C13000BDEC048BBDE8F04FFFF792BA0392FFF716
:10C1400051FADFED1A0A039A0146E1E70392FFF77D
:10C1500049FAF0EE680A039A0146B0EE490AD9E7B7
:10C160000392FFF73FFA9FED0B0A039A0146F0EEA8
:10C17000480ACFE700232360D0E70137AAE700BFD2
:10C180000A0906089D88000831850008446E0508E4
:10C19000360906086F12833AACC5A737ACC5A73677
:10C1A00054090608000000008D0906086F120339C3
:10C1B00038D500206028002068170020024BD3F8F3
:10C1C000E806FFF74ABA00BF6028002003685B68F2
:10C1D000184703689B6818470368DB6970B5064613
:10C1E0000C46154683B1BDE8704018473046FFF74E
:10C1F000F0FF0028FAD014F8011B3046FFF72DFAA3
:10C200002B1B002BF2DC70BD0D44F9E7E4E703685B
:10C21000DB68184703681B69184703685B691847A0
:10C220000FB437B50B4D06ABD5F8F01653F8042B09
:10C23000D5F8EC06019343F086FA0446D5F8E806F3
:10C24000FFF7EBFF0028F9D0204603B0BDE83040EF
:10C2500004B070476028002072B600224FF0FF3112
:10C26000930003F1604303F561430132082AC3F8E8
:10C270008010C3F88011F3D1BFF34F8F0549064BEF
:10C28000CA6802F4E0621343CB60BFF34F8F00BF74
:10C29000FDE700BF00ED00E00400FA05012108B54C
:10C2A0000846FCF759FEFFF7D7FF07B50B4B0021F7
:10C2B00001910193019B04330193019B18680128AC
:10C2C00008D1FCF749FE064B1A6882F308885B68C0
:10C2D0009847FEE703B05DF804FB00BF502800401C
:10C2E0000000FF1FEFF31183102282F31288094927
:10C2F0000A6A01320A624FF0E02207499069C1F8E8
:10C30000F4060020C1F8F8061269DBB283F3118845
:10C31000704700BF6817002060280020074A084BBC
:10C320005168D3F8843158434FF47A73B0FBF3F07B
:10C3300053685B1A8342FBD9704700BF001000E0CE
:10C340006817002010B504464FF4FA70FFF7E6FFB7
:10C350006069BDE81040FCF7ABB873B5104B1546EB
:10C3600090F910200446142000FB0233D3F81C6916
:10C37000A3689A0704D46069019143F06FF80199AA
:10C38000304643F0C7F92946304643F0C3F9A36865
:10C390009B0702D42046FFF7D5FF012002B070BDF5
:10C3A00000000020F7B515461E4690F91020104BEE
:10C3B0000446142000FB0233D3F81C79A3689A07C3
:10C3C00004D46069019143F049F80199384643F07B
:10C3D000A1F933462A460021384643F06FF9A36895
:10C3E0009B0702D42046FFF7ADFF012003B0F0BD4C
:10C3F00000000020F7B515461E4690F91020104B9E
:10C400000446142000FB0233D3F81C79A3689A0772
:10C4100004D46069019143F021F80199384643F052
:10C4200079F9334600222946384643F047F9A36894
:10C430009B0702D42046FFF785FF012003B0F0BD23
:10C440000000002073B5124B154690F910200446E9
:10C45000142000FB0233D3F81C69A3689A0704D4A4
:10C460006069019142F0FAFF0199304643F052F9B8
:10C47000012300222946304643F020F9A3689B0798
:10C4800002D42046FFF75EFF012002B070BD00BF5E
:10C490000000002030B5EFF31182102383F31288DF
:10C4A0004FF0E0230F489C69196911F4803F1CBFCD
:10C4B0000121C0F8F8160C4918BF9C690D6AD0F824
:10C4C000F836D2B282F31188D1F884114FF47A721F
:10C4D00002FB01F02B44001BB0FBF1F00021E3FB59
:10C4E000020130BD6028002068170020124B5B68F5
:10C4F000C3F3080330B4EBB9EFF31183D3B90F4B97
:10C500000F484FF0E025196AAC691A6A8A42FAD1DD
:10C51000D0F8F416A142F6D3D3F884114FF47A730D
:10C5200003FB01F0001BB0FBF1F00021E2FB030173
:10C5300030BC704730BCADE700ED00E0681700206C
:10C5400060280020F8B506460D46FFF7CFFF0446E9
:10C550000F46FFF7CBFF031B61EB0702B34272EB01
:10C560000503F6D3F8BD2DE9F047BA4E440106EBBA
:10C570004019FFF7BBFF99F9E027B74B8846D10078
:10C5800003EBC2020746D2F86C5999F8E227013A48
:10C59000142A00F28680DFE812F07C008C00A400F0
:10C5A000BD00CA00D400DF00F70004010D011A012C
:10C5B0006D018B01BD01140227023902440264029D
:10C5C000870215005F184FF0090A97F87009FEF707
:10C5D00043F9054697F87109FEF73EF99F4AB2F80C
:10C5E000FC3601339BB207462846A2F8FC36FBF71F
:10C5F0005FFF3846FBF75CFF11212846FEF704F980
:10C6000011213846FEF700F94FF0650803E00520D8
:10C610000021FFF797FF25B12B68AA881B691A42F2
:10C6200002D1B8F10108F2D12846FEF7E8F800215E
:10C630000520FFF787FF2846FBF73AFF002105207A
:10C64000FFF780FFBAF1010ADED12846FEF7D7F8DE
:10C6500000210520FFF776FF3846FEF7D0F80021CD
:10C660000520FFF76FFF2846FBF722FF002105207A
:10C67000FFF768FF3846FBF71BFF331993F9E00714
:10C68000431C01D0FEF710F93319002283F8E2278A
:10C6900007E02B8813F4007340F0D281321982F83E
:10C6A000E237331993F8E237002B7FF462AFBDE82D
:10C6B000F0872B8823F400631B041B0C2B802B8832
:10C6C0009BB243F480632B802B889BB243F480732E
:10C6D0002B803319032283F8E227614B2344C3E9FB
:10C6E000027860492846FBF77EFD002800F0A8810B
:10C6F000331993F8F2275AB993F8F327FF2A04D194
:10C7000093F8F0270AB10A22C0E733190422BDE7E3
:10C710000F22BBE7321992F8F13703F0FE032B82A8
:10C72000052382F8E2374E4B2344C3E902784E4991
:10C730002846FBF758FD002800F07A8133190622BD
:10C74000A4E7331993F8F3272A82072283F8E22714
:10C75000434B2344C3E9027844492846FBF743FD91
:10C76000002800F065813219D2F8F43753B92B88CC
:10C770009BB243F400732B80394B2344C3E9027806
:10C7800001238CE708238AE72B889BB243F480734C
:10C790002B803319092283F8E227314B2344C3E964
:10C7A000027830492846FBF71EFD002800F048813A
:10C7B0003319A8E7321992F8F13743F001032B82BD
:10C7C0000B2382F8E237264B2344C3E90278284939
:10C7D0002846FBF708FD002800F02A813219D2F81C
:10C7E000F437012B1BD12B8823F480631B041B0C13
:10C7F0002B80EFF31181102383F312882B8B2B886E
:10C800009BB243F400732B80CBB283F311880C23CB
:10C8100082F8E237124B2344C3E9027841E7022B46
:10C8200015D12B889BB243F400632B80EFF3118169
:10C83000102383F312882B8B2B8823F480631B0433
:10C840001B0C2B80CBB283F311880D23E0E72B8BDD
:10C850000E23DDE76817002000000020602800207C
:10C86000481F002001000300820007008400070029
:10C870000200030094492846FBF7C0FC934B0028B4
:10C8800000F0DF8031192344D1F8F827501CC1F89B
:10C89000F807288A1070D1F8F427013AC1F8F42774
:10C8A0000122C3E9027881F8FC2781F8E227F8E643
:10C8B00087492846FBF7A2FC844B002800F0C18082
:10C8C000EFF3118C102282F312882A88301992B269
:10C8D000D0F8F81742F400722A804A1CC0F8F827F2
:10C8E0002A8A0A705FFA8CF282F31188D0F8F8274E
:10C8F000511CC0F8F817298A11706FF00102C0F8B6
:10C90000F42723440122C3E9027880F8FC2780F849
:10C91000E227C6E66E492846FBF770FC6B4B002801
:10C9200000F08F803219D2F8F41703292AD1298810
:10C9300021F480610904090C2980EFF3118C102186
:10C9400081F31288D2F8F807411CC2F8F817298A37
:10C950000170298889B241F4007129805FFA8CF155
:10C9600081F31188D2F8F817481CC2F8F807288A12
:10C970000870D2F8F4170239C2F8F4170C2182F8C3
:10C98000E21748E702290FD8298821F480610904B9
:10C99000090C2980298889B241F400712980298AEB
:10C9A000002182F8FC17E8E6D2F8F817481CC2F814
:10C9B000F807288A0870D2F8F4170139C2F8F4177A
:10C9C00029E72B8823F4806332191B041B0C2B806E
:10C9D00092F8F13703F0FE032B82102382F8E2373E
:10C9E0003A4B2344C3E902783A492846FBF7FBFB5C
:10C9F000F0B1331993F8F327FF2A04D193F8F02705
:10CA00000AB1132242E6331911223FE6331993F893
:10CA1000F3272A82122283F8E2272C4B2344C3E90E
:10CA200002782D492846FBF7DEFB08B13319E8E709
:10CA30002A492846FBF7E2FB10B13319142225E6F8
:10CA4000224B2344D3E9020142F21073381A68EBF7
:10CA50000108984278F10003FFF423AE3319152240
:10CA600014E63119194BD1F8F4278AB1D1F8F80737
:10CA7000234410F801CBA5F810C0013AC3E90278AD
:10CA8000C1F8F807C1F8F427122381F8E23708E665
:10CA90002A8892B2234442F400722A80C3E90278C1
:10CAA000012381F8FC37F0E72B889BB243F4007335
:10CAB0002B804FF6FF33AB82044B2344C3E902784B
:10CAC00001223319E2E500BF40000010481F00209A
:10CAD000040000108200070084000700000400101A
:10CAE00038B5114C04EB401494F8E157D5B1C4F8B3
:10CAF000F437049BC4F8F837002384F8FC3702238A
:10CB0000490084F8F32784F8E23701229DF81430B5
:10CB100084F8F11784F8F22784F8F037FFF723FD43
:10CB200094F8FC57284638BD68170020F7B50779F8
:10CB3000012F16460AD0022F15D18468E40758BF8A
:10CB400041F0800103B0BDE8F0402BE4826802F0C0
:10CB50000102CDE900620A46417C90F91000FFF71E
:10CB6000BFFF03B0F0BD0020FBE707B5130A8DF847
:10CB700004308DF80520022301AAFFF7D7FF024BEE
:10CB8000187003B05DF804FB0000002010B50A4CDB
:10CB9000002384F8FE3684F8FF1684F80027032368
:10CBA00004F2FE62FF21FFF7C1FF00280CBF6FF007
:10CBB0000C00002010BD00BF6028002010B50B4CF9
:10CBC000002384F8FE36130A84F8FF1684F8003731
:10CBD00084F80127042304F2FE62FF21FFF7A6FF79
:10CBE00000280CBF6FF00C00002010BD6028002052
:10CBF000024A00680023512198E700BF5E30002000
:10CC00007FB50379012B0D460BD0022B1AD1836817
:10CC1000DB0758BF01F07F0104B0BDE87040FFF7AB
:10CC20009CBB81688DF80F2001F001010DF10F020E
:10CC300000920191417C90F910002A46FFF750FFC5
:10CC400004B070BD0020FBE70068F022FF21D7E7A9
:10CC5000CA4341EA02120068D2B2D221D0E700688A
:10CC6000B422FF21CCE70A460068A521C8E7552178
:10CC7000F9E700689622FF21C2E70A46006887218B
:10CC8000BEE7C90101F0800200687821B8E70068BA
:10CC900002220821B4E7006801220821B0E710B59C
:10CCA0000446002221210068FFF7AAFF2068FC2229
:10CCB0002021FFF7A5FF206840222421FFF7A0FFD5
:10CCC00020680C222321FFF79BFF206800222221ED
:10CCD000FFF796FF012010BD10B5012204460B217D
:10CCE0000068FFF78DFF20B120681D220921FFF7A2
:10CCF00087FF00F0010010BD10B5044694220B21FF
:10CD00000068FFF77DFF206871220121FFF778FF9F
:10CD1000206800220421FFF773FF2068C822052144
:10CD2000FFF76EFF206800220621FFF769FF2068E9
:10CD3000C8220721FFF764FF206800220821FFF7BF
:10CD40005FFF2068C8220921FFF75AFF012010BDAC
:10CD5000034B0246D3F8000808B1802150E7704722
:10CD60006028002010B5B020FFF7F2FF4020FFF749
:10CD7000EFFF0020FFF7ECFF1020FFF7E9FF4FF473
:10CD80008064013C0020A4B242F0FBF8002CF8D1F2
:10CD900010BD503910B50446C8B2FFF7D9FF04EBF7
:10CDA0004400400004EB440400F00E00FFF7D0FF05
:10CDB000C4F3C3001030BDE81040C9E708B55038CF
:10CDC000C0B2FFF7C5FF0020FFF7C2FFBDE8084073
:10CDD0001020BDE738B500221F2333210120FEF7C4
:10CDE00031F93D4BC3F8000810B90024204638BD86
:10CDF000AE20FFF7ADFF04460028F6D0D420FFF7A1
:10CE0000A7FF8020FFF7A4FFA820FFF7A1FF3F2086
:10CE1000FFF79EFFD320FFF79BFF0020FFF798FF4F
:10CE20004020FFF795FF8D20FFF792FF1420FFF7BA
:10CE30008FFFA120FFF78CFFC820FFF789FFDA20C2
:10CE4000FFF786FF1220FFF783FF8120FFF780FFA7
:10CE5000CF20FFF77DFFD920FFF77AFFF120FFF702
:10CE600077FFDB20FFF774FF4020FFF771FFA4205E
:10CE7000FFF76EFFA620FFF76BFFAF20FFF768FFFD
:10CE8000A620FFF765FFAE20FFF762FF2020FFF727
:10CE90005FFF0020FFF75CFFB020FFF759FF402045
:10CEA000FFF756FF0020FFF753FF1020FFF750FF5A
:10CEB0004FF48065013D0020ADB242F062F8002DD4
:10CEC000F8D18120FFF744FFC820FFF741FFAF20D2
:10CED000FFF73EFF8AE700BF6028002008B5FFF794
:10CEE0008FFE014B187008BD0000002038B5114CB2
:10CEF00004EB401494F8E157CDB1C4F8F437049B27
:10CF0000C4F8F8370223490084F8F32784F8E2379D
:10CF100000229DF8143084F8F11784F8F22784F881
:10CF2000FC2784F8F037FFF71EFB94F8FC572846DF
:10CF300038BD00BF68170020F7B50779012F1646E6
:10CF40000BD0022F16D18468E40758BF41F080014E
:10CF500003B0BDE8F040FFF74DBA826802F001026D
:10CF6000CDE900620A46417C90F91000FFF7BEFF50
:10CF700003B0F0BD0020FBE770B5066805463046FB
:10CF8000FEF770FC0E230446021D3B213046FFF7DE
:10CF9000D3FFA070B8B1A389DBBA07EE903AF8EEE0
:10CFA000E77AC5ED077AE389DBBA07EE903AF8EE47
:10CFB000E77AC5ED087A238ADBBA07EE903AF8EEF5
:10CFC000E77AC5ED097A70BD07B50323006801AAA9
:10CFD0001946FFF7B1FFA0B19DF804309DF8051088
:10CFE0009DF904201B0443EA01239DF80610002A42
:10CFF000B4BF4FF07F4200220B431343024AC2F8F2
:10D00000D83003B05DF804FB6817002007B5032390
:10D01000006801AA0021FFF78FFFA0B19DF804303E
:10D020009DF805109DF904201B0443EA01239DF897
:10D030000610002AB4BF4FF07F4200220B43134377
:10D04000024AC2F8BC3003B05DF804FB6817002048
:10D0500013B5044600680379022B0CBF432103215A
:10D0600006236A46FFF768FF18B9E086A06302B09E
:10D0700010BDBDF800305BBAE386BDF802305BBA84
:10D080006387BDF804305BBA2387F0E713B5062346
:10D0900004466A4600681121FFF74EFF18B9E08682
:10D0A000A06302B010BDBDF9003007EE103AB8EE33
:10D0B000C77AF7EE086A27EE267ABDEEC77A17EE32
:10D0C000103AE386BDF9023007EE103AB8EEC77A9F
:10D0D00027EE267ABDEEC77A17EE103A2387BDF900
:10D0E000043007EE903AF8EEE77A67EEA67AFDEEA6
:10D0F000E77A17EE903A6387D3E713B50023C38628
:10D1000083630446062300686A460321FFF714FF81
:10D1100078B1BDF8003003EB4303E386BDF902307C
:10D120005B4203EB43032387BDF8043003EB430367
:10D13000638702B010BD13B500210446C186816328
:10D14000062300686A46FFF7F7FE40B1BDF80030DD
:10D15000E386BDF802302387BDF80430638702B050
:10D1600010BD13B5002304460093ADF804308DF8CC
:10D1700006306A4607234E210068FFF7DDFEBDF842
:10D1800001305BBAE386BDF803305BBA2387BDF894
:10D19000053001205BBA638702B010BD07B50123DB
:10D1A00001AAFF210068FFF7C7FE03B05DF804FB8A
:10D1B000F7B505460068FEF755FB0023037004230E
:10D1C00004460DEB03022868FF21FFF7B5FE10B9F6
:10D1D000002003B0F0BD286804236A46FF21FFF752
:10D1E000ABFE0028F4D09DF804108A09023A012A07
:10D1F000EED99DF8053003EB012343F6FF75C3F329
:10D200000D03AB42E4D0002BE2D09DF806109DF850
:10D21000072040F2FF7702EB0122B7EB521F4FEAE3
:10D220006211D5D00029D3D09DF800609DF801206F
:10D2300002EB0622C2F30D02AA42C9D0002AC7D0CF
:10D240009DF802609DF8035005EB0625B7EB551FCE
:10D250004FEA6516BCD0002EBAD09D1A002DB8BF7B
:10D260006D42FF2DB4DC8D1B002DB8BF6D42FF2D2C
:10D27000AEDC0125134431442B4129412570C4F80B
:10D280000530C4F80110A4E773B505460068FEF741
:10D29000E9FA00260423044606700DEB0302286811
:10D2A000FF21FFF749FE48B19DF804108B0907D014
:10D2B00003200D4A0421FEF7D3F9304602B070BDB9
:10D2C0009DF805209DF8073002EB01229DF806101D
:10D2D00003EB012392B25B1101212170C4F80520F8
:10D2E000C4F80130EAE700BFB209060807B5022317
:10D2F00001AAFFF721FE044B1870BDF8040040BAE4
:10D3000080B203B05DF804FB0000002038B515467C
:10D310000D4A0B0A82F8FE3682F8FF16022302F24B
:10D32000FE62FF210446FFF701FC10B96FF00C000C
:10D3300038BD01232A46FF212046FFF7FDFD0028C6
:10D34000F4D00020F4E700BF60280020F8B5124DAB
:10D35000164685F8FF1605F2FE6200240223FF211F
:10D36000074685F8FE46FFF7E1FB05F2FE6210B9BD
:10D370006FF00C00F8BD0223FF213846FFF7DCFDFB
:10D380000028F5D095F8FE2695F8FF3603EB02232A
:10D3900033802046EEE700BF602800202DE9F341EE
:10D3A000754D0468DFF8DC810023064685F872308D
:10D3B0002D27B9B218F8012B20460137FFF7E6FBFD
:10D3C000882FF6D1402287212046FFF7DFFB00237C
:10D3D0008DF806300DF10601204641F035FD9DF82F
:10D3E0000630002BF6D0012286212046FFF7CEFB27
:10D3F000002287212046FFF7C9FB09220821204689
:10D40000FFF7C4FB00220B212046FFF7BFFB0028DB
:10D4100053D137680DF106025E213846FFF796FFBB
:10D42000BDF80630B3F5D77F00F0A18055D8512B59
:10D4300000F09B8049D81D2B6CD01E2B00F09580EE
:10D440003068212141F06FFC34680DF10602DE21C5
:10D450002046FFF77BFFBDF806309FED487AC3F307
:10D4600009032822ADF80630534307EE903AF8EE50
:10D47000E77A434A67EE877A0021FCEEE77A82F882
:10D48000FE1617EE903A6C2182F8FF16190E82F8FC
:10D490000017190C82F80117190A82F8021782F88E
:10D4A0000337FF2102F2FE6206232046FFF73EFB10
:10D4B000306840228721FFF769FBB0FA80F040090D
:10D4C00085F8720002B0BDE8F081AD2B4FD0D62BAD
:10D4D00001D0602BB4D121241DE040F2E13293420F
:10D4E00047D00CD840F2D922934242D040F2E122F8
:10D4F000934202D0B3F5E67FA2D164240BE040F260
:10D500008F42934203D040F29152934298D14FF40C
:10D51000FA7400E00F24002892D10A224B213846E9
:10D52000FFF734FB0F2260213846FFF72FFB0D2257
:10D5300063213846FFF72AFBB82269213846FFF7F6
:10D5400025FB40F60D7278213846FFF737FB40F691
:10D550000E627A213846FFF731FB00287FF470AF66
:10D560002146384641F0DFFB6AE71424D3E7322432
:10D57000D1E7C824CFE700BF681700209A99893FF8
:10D5800060280020E672050837B5124D95F8723014
:10D590000446E3B100680DF1050141F055FC9DF82A
:10D5A00005307BB10DF1060220689621FFF7CEFE13
:10D5B0000A22BDF80630B3FBF2F3074A9360012359
:10D5C00085F87330206801228621FFF7DFFA03B067
:10D5D00030BD00BF681700200000002013B50223F3
:10D5E00001AA044651210068FFF7A6FC114AF0B1D8
:10D5F000BDF804305BBA9BB2D360D368B3F5C87F83
:10D6000002DD4FF0FF33D3600B4B0C4A196AD2F89E
:10D61000043832338B4208D2C2F804182068002341
:10D6200002F2FE725121FFF781FA02B010BD6FF0D5
:10D630000103E8E7000000206817002060280020B0
:10D6400007B50223006801AA0021FFF775FC0F4B04
:10D6500083F87800B0B1BDF804300D4A5BBA9BB2D4
:10D66000B3F5FA6F3FBF0A21B3FBF1F307EE903A2F
:10D67000F8EEE77A2BBF4FF0FF33FDEEE77A136148
:10D68000C2ED047A03B05DF804FB00BF6817002008
:10D690000000002013B502230C46006801AA0021F7
:10D6A000FFF74AFC60B15CB19DF805309DF904209C
:10D6B000DB0903EB830302EB820203EB42032380CB
:10D6C00002B010BD73B50379012B16460BD0022BA7
:10D6D00016D18368DB0758BF41F0800102B0BDE876
:10D6E0007040FEF7AFBE826802F00102CDE9006231
:10D6F0000A46417C90F91000FFF7F8FB02B070BDBC
:10D700000020FBE738B50446154600680A46E121CB
:10D71000FFF776FA28B120682A46FF21BDE8384095
:10D72000D0E738BD0A46E121ECE70A46C321E9E724
:10D7300038B5021D0D46F0210446FFF7E3FF08B19E
:10D7400023792B7038BDF8B504460E461546071DE3
:10D7500020683A46FF21FFF7B5FF30B116B12379B3
:10D76000DB07F5D40DB123792B70F8BD0022012120
:10D77000E9E710B50446FFF772FA18B12046BDE894
:10D780001040F3E710BD10B50446FFF76CFA18B16E
:10D790002046BDE81040E9E710BD70B506460C46CE
:10D7A0008D18AC4201D1012006E014F8011B30466F
:10D7B000FFF7E9FF0028F4D170BDCC21E3E738B5CD
:10D7C00004460D46FFF755FA40B12046FFF7CEFF5D
:10D7D00020B129462046BDE83840A3E7002038BDE7
:10D7E00070B506460C468D18AC4201D1012006E00A
:10D7F00021463046FFF7E3FF01340028F4D170BD25
:10D8000038B505461446FFF738FA2846FFF7AEFF4D
